{
  "address": "0x0F9935aE9A1ea187AA2E3CDDC03d7427f69D690a",
  "abi": [
    {
      "inputs": [],
      "stateMutability": "nonpayable",
      "type": "constructor"
    },
    {
      "inputs": [],
      "name": "InsufficientFunds",
      "type": "error"
    },
    {
      "inputs": [
        {
          "internalType": "string",
          "name": "message",
          "type": "string"
        }
      ],
      "name": "InvalidArguments",
      "type": "error"
    },
    {
      "inputs": [],
      "name": "OnlyOwner",
      "type": "error"
    },
    {
      "anonymous": false,
      "inputs": [
        {
          "indexed": true,
          "internalType": "address",
          "name": "buyer",
          "type": "address"
        },
        {
          "indexed": false,
          "internalType": "uint256",
          "name": "price",
          "type": "uint256"
        }
      ],
      "name": "BuyMeACoffeeEvent",
      "type": "event"
    },
    {
      "anonymous": false,
      "inputs": [
        {
          "indexed": true,
          "internalType": "address",
          "name": "userAddress",
          "type": "address"
        },
        {
          "indexed": false,
          "internalType": "uint256",
          "name": "time",
          "type": "uint256"
        },
        {
          "indexed": false,
          "internalType": "uint256",
          "name": "numCoffees",
          "type": "uint256"
        },
        {
          "indexed": false,
          "internalType": "string",
          "name": "userName",
          "type": "string"
        },
        {
          "indexed": false,
          "internalType": "string",
          "name": "twitterHandle",
          "type": "string"
        },
        {
          "indexed": false,
          "internalType": "string",
          "name": "message",
          "type": "string"
        }
      ],
      "name": "NewMemo",
      "type": "event"
    },
    {
      "inputs": [
        {
          "internalType": "uint256",
          "name": "numCoffees",
          "type": "uint256"
        },
        {
          "internalType": "string",
          "name": "userName",
          "type": "string"
        },
        {
          "internalType": "string",
          "name": "twitterHandle",
          "type": "string"
        },
        {
          "internalType": "string",
          "name": "message",
          "type": "string"
        }
      ],
      "name": "buyCoffee",
      "outputs": [],
      "stateMutability": "payable",
      "type": "function"
    },
    {
      "inputs": [],
      "name": "getMemos",
      "outputs": [
        {
          "components": [
            {
              "internalType": "uint256",
              "name": "numCoffees",
              "type": "uint256"
            },
            {
              "internalType": "string",
              "name": "userName",
              "type": "string"
            },
            {
              "internalType": "string",
              "name": "twitterHandle",
              "type": "string"
            },
            {
              "internalType": "string",
              "name": "message",
              "type": "string"
            },
            {
              "internalType": "uint256",
              "name": "time",
              "type": "uint256"
            },
            {
              "internalType": "address",
              "name": "userAddress",
              "type": "address"
            }
          ],
          "internalType": "struct Memo[]",
          "name": "",
          "type": "tuple[]"
        }
      ],
      "stateMutability": "view",
      "type": "function"
    },
    {
      "inputs": [
        {
          "internalType": "uint256",
          "name": "",
          "type": "uint256"
        }
      ],
      "name": "memos",
      "outputs": [
        {
          "internalType": "uint256",
          "name": "numCoffees",
          "type": "uint256"
        },
        {
          "internalType": "string",
          "name": "userName",
          "type": "string"
        },
        {
          "internalType": "string",
          "name": "twitterHandle",
          "type": "string"
        },
        {
          "internalType": "string",
          "name": "message",
          "type": "string"
        },
        {
          "internalType": "uint256",
          "name": "time",
          "type": "uint256"
        },
        {
          "internalType": "address",
          "name": "userAddress",
          "type": "address"
        }
      ],
      "stateMutability": "view",
      "type": "function"
    },
    {
      "inputs": [
        {
          "internalType": "uint256",
          "name": "index",
          "type": "uint256"
        },
        {
          "internalType": "string",
          "name": "message",
          "type": "string"
        }
      ],
      "name": "modifyMemoMessage",
      "outputs": [],
      "stateMutability": "nonpayable",
      "type": "function"
    },
    {
      "inputs": [],
      "name": "owner",
      "outputs": [
        {
          "internalType": "address payable",
          "name": "",
          "type": "address"
        }
      ],
      "stateMutability": "view",
      "type": "function"
    },
    {
      "inputs": [],
      "name": "price",
      "outputs": [
        {
          "internalType": "uint256",
          "name": "",
          "type": "uint256"
        }
      ],
      "stateMutability": "view",
      "type": "function"
    },
    {
      "inputs": [
        {
          "internalType": "uint256",
          "name": "index",
          "type": "uint256"
        }
      ],
      "name": "removeMemo",
      "outputs": [],
      "stateMutability": "nonpayable",
      "type": "function"
    },
    {
      "inputs": [],
      "name": "withdrawTips",
      "outputs": [],
      "stateMutability": "nonpayable",
      "type": "function"
    },
    {
      "stateMutability": "payable",
      "type": "receive"
    }
  ],
  "transactionHash": "0x667f01b6ff3f532f3bcf9a33671842a9e1c802a4b9006afcb88a66e65c21edb2",
  "args": [],
  "numDeployments": 1,
  "solcInputHash": "58631341f2af7d65c4e09bae85097cdb",
  "bytecode": "0x608060405234801561001057600080fd5b50600080546001600160a01b03191633179055655af3107a40006001556119b88061003c6000396000f3fe60806040526004361061007f5760003560e01c8063865c51721161004e578063865c5172146100f55780638da5cb5b14610120578063a035b1fe14610158578063e8dfdf041461017c57600080fd5b8063304f2e211461008b5780633aaa74b2146100ad578063406b2b46146100c25780635456d394146100e257600080fd5b3661008657005b600080fd5b34801561009757600080fd5b506100ab6100a6366004611323565b6101ae565b005b3480156100b957600080fd5b506100ab61085d565b3480156100ce57600080fd5b506100ab6100dd366004611352565b610946565b6100ab6100f0366004611456565b610c38565b34801561010157600080fd5b5061010a610ea9565b6040516101179190611540565b60405180910390f35b34801561012c57600080fd5b50600054610140906001600160a01b031681565b6040516001600160a01b039091168152602001610117565b34801561016457600080fd5b5061016e60015481565b604051908152602001610117565b34801561018857600080fd5b5061019c610197366004611323565b6110eb565b60405161011796959493929190611609565b60025481106101f557604051630aec738560e11b815260206004820152600d60248201526c092dcecc2d8d2c840d2dcc8caf609b1b60448201526064015b60405180910390fd5b60006002828154811061020a5761020a61166c565b90600052602060002090600602016040518060c00160405290816000820154815260200160018201805461023d90611682565b80601f016020809104026020016040519081016040528092919081815260200182805461026990611682565b80156102b65780601f1061028b576101008083540402835291602001916102b6565b820191906000526020600020905b81548152906001019060200180831161029957829003601f168201915b505050505081526020016002820180546102cf90611682565b80601f01602080910402602001604051908101604052809291908181526020018280546102fb90611682565b80156103485780601f1061031d57610100808354040283529160200191610348565b820191906000526020600020905b81548152906001019060200180831161032b57829003601f168201915b5050505050815260200160038201805461036190611682565b80601f016020809104026020016040519081016040528092919081815260200182805461038d90611682565b80156103da5780601f106103af576101008083540402835291602001916103da565b820191906000526020600020905b8154815290600101906020018083116103bd57829003601f168201915b5050509183525050600482015460208201526005909101546001600160a01b0390811660409092019190915260a082015191925016331480159061042957506000546001600160a01b03163314155b1561046f57604051630aec738560e11b815260206004820152601560248201527413dc195c985d1a5bdb881b9bdd08185b1b1bddd959605a1b60448201526064016101ec565b6000600283815481106104845761048461166c565b90600052602060002090600602016040518060c0016040529081600082015481526020016001820180546104b790611682565b80601f01602080910402602001604051908101604052809291908181526020018280546104e390611682565b80156105305780601f1061050557610100808354040283529160200191610530565b820191906000526020600020905b81548152906001019060200180831161051357829003601f168201915b5050505050815260200160028201805461054990611682565b80601f016020809104026020016040519081016040528092919081815260200182805461057590611682565b80156105c25780601f10610597576101008083540402835291602001916105c2565b820191906000526020600020905b8154815290600101906020018083116105a557829003601f168201915b505050505081526020016003820180546105db90611682565b80601f016020809104026020016040519081016040528092919081815260200182805461060790611682565b80156106545780601f1061062957610100808354040283529160200191610654565b820191906000526020600020905b81548152906001019060200180831161063757829003601f168201915b5050509183525050600482015460208201526005909101546001600160a01b0316604090910152600280549192509061068f906001906116d2565b8154811061069f5761069f61166c565b9060005260206000209060060201600284815481106106c0576106c061166c565b6000918252602090912082546006909202019081556001808201906106e79084018261173a565b506002818101906106fa9084018261173a565b5060038181019061070d9084018261173a565b5060048281015490820155600591820154910180546001600160a01b0319166001600160a01b0390921691909117905560028054829190610750906001906116d2565b815481106107605761076061166c565b906000526020600020906006020160008201518160000155602082015181600101908161078d919061181b565b50604082015160028201906107a2908261181b565b50606082015160038201906107b7908261181b565b506080820151600482015560a090910151600590910180546001600160a01b0319166001600160a01b0390921691909117905560028054806107fb576107fb6118d5565b6000828152602081206006600019909301928302018181559061082160018301826112d5565b61082f6002830160006112d5565b61083d6003830160006112d5565b506000600482015560050180546001600160a01b03191690559055505050565b6000546001600160a01b0316331461088857604051635fc483c560e01b815260040160405180910390fd5b476000036108a95760405163356680b760e01b815260040160405180910390fd5b600080546040516001600160a01b039091169047908381818185875af1925050503d80600081146108f6576040519150601f19603f3d011682016040523d82523d6000602084013e6108fb565b606091505b50509050806109435760405162461bcd60e51b81526020600482015260146024820152732330b4b632b2103a379039b2b7321022ba3432b960611b60448201526064016101ec565b50565b600254821061098857604051630aec738560e11b815260206004820152600d60248201526c092dcecc2d8d2c840d2dcc8caf609b1b60448201526064016101ec565b60006002838154811061099d5761099d61166c565b90600052602060002090600602016040518060c0016040529081600082015481526020016001820180546109d090611682565b80601f01602080910402602001604051908101604052809291908181526020018280546109fc90611682565b8015610a495780601f10610a1e57610100808354040283529160200191610a49565b820191906000526020600020905b815481529060010190602001808311610a2c57829003601f168201915b50505050508152602001600282018054610a6290611682565b80601f0160208091040260200160405190810160405280929190818152602001828054610a8e90611682565b8015610adb5780601f10610ab057610100808354040283529160200191610adb565b820191906000526020600020905b815481529060010190602001808311610abe57829003601f168201915b50505050508152602001600382018054610af490611682565b80601f0160208091040260200160405190810160405280929190818152602001828054610b2090611682565b8015610b6d5780601f10610b4257610100808354040283529160200191610b6d565b820191906000526020600020905b815481529060010190602001808311610b5057829003601f168201915b5050509183525050600482015460208201526005909101546001600160a01b0390811660409092019190915260a08201519192501633141580610bbb57506000546001600160a01b03163314155b15610c0157604051630aec738560e11b815260206004820152601560248201527413dc195c985d1a5bdb881b9bdd08185b1b1bddd959605a1b60448201526064016101ec565b8160028481548110610c1557610c1561166c565b90600052602060002090600602016003019081610c32919061181b565b50505050565b86600154610c4691906118eb565b341015610c665760405163356680b760e01b815260040160405180910390fd5b60405134815233907f6c786e8cbaf5f056129cce184bf072f2a16cb9af797b5d5dc57f280897eddaa19060200160405180910390a284158015610ca7575080155b15610cf557604051630aec738560e11b815260206004820152601b60248201527f496e76616c696420757365724e616d65206f72206d657373616765000000000060448201526064016101ec565b60026040518060c0016040528089815260200188888080601f016020809104026020016040519081016040528093929190818152602001838380828437600092019190915250505090825250604080516020601f890181900481028201810190925287815291810191908890889081908401838280828437600092019190915250505090825250604080516020601f87018190048102820181019092528581529181019190869086908190840183828082843760009201829052509385525050426020808501919091523360409094019390935250835460018181018655948252908290208351600690920201908155908201519192909190820190610dfb908261181b565b5060408201516002820190610e10908261181b565b5060608201516003820190610e25908261181b565b506080820151600482015560a090910151600590910180546001600160a01b0319166001600160a01b0390921691909117905560405133907f4c312a9c4e169a294b601cb57ba02fe2fa8a84c417a019692e201db957ec644f90610e989042908b908b908b908b908b908b908b9061192b565b60405180910390a250505050505050565b60606002805480602002602001604051908101604052809291908181526020016000905b828210156110e257838290600052602060002090600602016040518060c001604052908160008201548152602001600182018054610f0a90611682565b80601f0160208091040260200160405190810160405280929190818152602001828054610f3690611682565b8015610f835780601f10610f5857610100808354040283529160200191610f83565b820191906000526020600020905b815481529060010190602001808311610f6657829003601f168201915b50505050508152602001600282018054610f9c90611682565b80601f0160208091040260200160405190810160405280929190818152602001828054610fc890611682565b80156110155780601f10610fea57610100808354040283529160200191611015565b820191906000526020600020905b815481529060010190602001808311610ff857829003601f168201915b5050505050815260200160038201805461102e90611682565b80601f016020809104026020016040519081016040528092919081815260200182805461105a90611682565b80156110a75780601f1061107c576101008083540402835291602001916110a7565b820191906000526020600020905b81548152906001019060200180831161108a57829003601f168201915b505050918352505060048201546020808301919091526005909201546001600160a01b03166040909101529082526001929092019101610ecd565b50505050905090565b600281815481106110fb57600080fd5b6000918252602090912060069091020180546001820180549193509061112090611682565b80601f016020809104026020016040519081016040528092919081815260200182805461114c90611682565b80156111995780601f1061116e57610100808354040283529160200191611199565b820191906000526020600020905b81548152906001019060200180831161117c57829003601f168201915b5050505050908060020180546111ae90611682565b80601f01602080910402602001604051908101604052809291908181526020018280546111da90611682565b80156112275780601f106111fc57610100808354040283529160200191611227565b820191906000526020600020905b81548152906001019060200180831161120a57829003601f168201915b50505050509080600301805461123c90611682565b80601f016020809104026020016040519081016040528092919081815260200182805461126890611682565b80156112b55780601f1061128a576101008083540402835291602001916112b5565b820191906000526020600020905b81548152906001019060200180831161129857829003601f168201915b5050505060048301546005909301549192916001600160a01b0316905086565b5080546112e190611682565b6000825580601f106112f1575050565b601f01602090049060005260206000209081019061094391905b8082111561131f576000815560010161130b565b5090565b60006020828403121561133557600080fd5b5035919050565b634e487b7160e01b600052604160045260246000fd5b6000806040838503121561136557600080fd5b82359150602083013567ffffffffffffffff8082111561138457600080fd5b818501915085601f83011261139857600080fd5b8135818111156113aa576113aa61133c565b604051601f8201601f19908116603f011681019083821181831017156113d2576113d261133c565b816040528281528860208487010111156113eb57600080fd5b8260208601602083013760006020848301015280955050505050509250929050565b60008083601f84011261141f57600080fd5b50813567ffffffffffffffff81111561143757600080fd5b60208301915083602082850101111561144f57600080fd5b9250929050565b60008060008060008060006080888a03121561147157600080fd5b87359650602088013567ffffffffffffffff8082111561149057600080fd5b61149c8b838c0161140d565b909850965060408a01359150808211156114b557600080fd5b6114c18b838c0161140d565b909650945060608a01359150808211156114da57600080fd5b506114e78a828b0161140d565b989b979a50959850939692959293505050565b6000815180845260005b8181101561152057602081850181015186830182015201611504565b506000602082860101526020601f19601f83011685010191505092915050565b60006020808301818452808551808352604092508286019150828160051b87010184880160005b838110156115fb57603f19898403018552815160c08151855288820151818a870152611595828701826114fa565b91505087820151858203898701526115ad82826114fa565b915050606080830151868303828801526115c783826114fa565b6080858101519089015260a0948501516001600160a01b031694909701939093525050509386019390860190600101611567565b509098975050505050505050565b86815260c06020820152600061162260c08301886114fa565b828103604084015261163481886114fa565b9050828103606084015261164881876114fa565b608084019590955250506001600160a01b039190911660a090910152949350505050565b634e487b7160e01b600052603260045260246000fd5b600181811c9082168061169657607f821691505b6020821081036116b657634e487b7160e01b600052602260045260246000fd5b50919050565b634e487b7160e01b600052601160045260246000fd5b818103818111156116e5576116e56116bc565b92915050565b601f82111561173557600081815260208120601f850160051c810160208610156117125750805b601f850160051c820191505b818110156117315782815560010161171e565b5050505b505050565b818103611745575050565b61174f8254611682565b67ffffffffffffffff8111156117675761176761133c565b61177b816117758454611682565b846116eb565b6000601f8211600181146117af57600083156117975750848201545b600019600385901b1c1916600184901b178455611814565b600085815260209020601f19841690600086815260209020845b838110156117e957828601548255600195860195909101906020016117c9565b50858310156118075781850154600019600388901b60f8161c191681555b50505060018360011b0184555b5050505050565b815167ffffffffffffffff8111156118355761183561133c565b611843816117758454611682565b602080601f83116001811461187857600084156118605750858301515b600019600386901b1c1916600185901b178555611731565b600085815260208120601f198616915b828110156118a757888601518255948401946001909101908401611888565b50858210156118c55787850151600019600388901b60f8161c191681555b5050505050600190811b01905550565b634e487b7160e01b600052603160045260246000fd5b80820281158282048414176116e5576116e56116bc565b81835281816020850137506000828201602090810191909152601f909101601f19169091010190565b88815287602082015260a06040820152600061194b60a08301888a611902565b828103606084015261195e818789611902565b90508281036080840152611973818587611902565b9b9a505050505050505050505056fea26469706673582212202862c007f801337fc24b030d63dd89f75a8302eca6406cdb3876f72ef445437964736f6c63430008110033",
  "devdoc": {
    "details": "BuyMeACoffee contract to accept donations and for our users to leave a memo for us",
    "kind": "dev",
    "methods": {
      "buyCoffee(uint256,string,string,string)": {
        "details": "Function to buy a coffee",
        "params": {
          "message": "The message of the user (Note: Using calldata for gas efficiency)",
          "twitterHandle": "The Twitter handle of the user",
          "userName": "The name of the user"
        }
      },
      "getMemos()": {
        "details": "Function to get the memos"
      },
      "modifyMemoMessage(uint256,string)": {
        "details": "Function to modify a memo",
        "params": {
          "index": "The index of the memo",
          "message": "The message of the memo"
        }
      },
      "removeMemo(uint256)": {
        "details": "Function to remove a memo",
        "params": {
          "index": "The index of the memo"
        }
      },
      "withdrawTips()": {
        "details": "Function to withdraw the balance"
      }
    },
    "title": "BuyMeACoffee",
    "version": 1
  },
  "userdoc": {
    "kind": "user",
    "methods": {},
    "version": 1
  },
  "storageLayout": {
    "storage": [
      {
        "astId": 729,
        "contract": "contracts/BuyMeACoffee.sol:BuyMeACoffee",
        "label": "owner",
        "offset": 0,
        "slot": "0",
        "type": "t_address_payable"
      },
      {
        "astId": 731,
        "contract": "contracts/BuyMeACoffee.sol:BuyMeACoffee",
        "label": "price",
        "offset": 0,
        "slot": "1",
        "type": "t_uint256"
      },
      {
        "astId": 735,
        "contract": "contracts/BuyMeACoffee.sol:BuyMeACoffee",
        "label": "memos",
        "offset": 0,
        "slot": "2",
        "type": "t_array(t_struct(Memo)726_storage)dyn_storage"
      }
    ],
    "types": {
      "t_address": {
        "encoding": "inplace",
        "label": "address",
        "numberOfBytes": "20"
      },
      "t_address_payable": {
        "encoding": "inplace",
        "label": "address payable",
        "numberOfBytes": "20"
      },
      "t_array(t_struct(Memo)726_storage)dyn_storage": {
        "base": "t_struct(Memo)726_storage",
        "encoding": "dynamic_array",
        "label": "struct Memo[]",
        "numberOfBytes": "32"
      },
      "t_string_storage": {
        "encoding": "bytes",
        "label": "string",
        "numberOfBytes": "32"
      },
      "t_struct(Memo)726_storage": {
        "encoding": "inplace",
        "label": "struct Memo",
        "members": [
          {
            "astId": 715,
            "contract": "contracts/BuyMeACoffee.sol:BuyMeACoffee",
            "label": "numCoffees",
            "offset": 0,
            "slot": "0",
            "type": "t_uint256"
          },
          {
            "astId": 717,
            "contract": "contracts/BuyMeACoffee.sol:BuyMeACoffee",
            "label": "userName",
            "offset": 0,
            "slot": "1",
            "type": "t_string_storage"
          },
          {
            "astId": 719,
            "contract": "contracts/BuyMeACoffee.sol:BuyMeACoffee",
            "label": "twitterHandle",
            "offset": 0,
            "slot": "2",
            "type": "t_string_storage"
          },
          {
            "astId": 721,
            "contract": "contracts/BuyMeACoffee.sol:BuyMeACoffee",
            "label": "message",
            "offset": 0,
            "slot": "3",
            "type": "t_string_storage"
          },
          {
            "astId": 723,
            "contract": "contracts/BuyMeACoffee.sol:BuyMeACoffee",
            "label": "time",
            "offset": 0,
            "slot": "4",
            "type": "t_uint256"
          },
          {
            "astId": 725,
            "contract": "contracts/BuyMeACoffee.sol:BuyMeACoffee",
            "label": "userAddress",
            "offset": 0,
            "slot": "5",
            "type": "t_address"
          }
        ],
        "numberOfBytes": "192"
      },
      "t_uint256": {
        "encoding": "inplace",
        "label": "uint256",
        "numberOfBytes": "32"
      }
    }
  }
}